{
	"FundMe.sol": {
		"FundMe": {
			"abi": [
				{
					"inputs": [],
					"name": "decimals",
					"outputs": [
						{
							"internalType": "uint256",
							"name": "",
							"type": "uint256"
						}
					],
					"stateMutability": "view",
					"type": "function"
				},
				{
					"inputs": [],
					"name": "fund",
					"outputs": [],
					"stateMutability": "payable",
					"type": "function"
				},
				{
					"inputs": [
						{
							"internalType": "uint256",
							"name": "ethAmount",
							"type": "uint256"
						}
					],
					"name": "getConversionRate",
					"outputs": [
						{
							"internalType": "uint256",
							"name": "",
							"type": "uint256"
						}
					],
					"stateMutability": "view",
					"type": "function"
				},
				{
					"inputs": [],
					"name": "getLatestPrice",
					"outputs": [
						{
							"internalType": "uint256",
							"name": "",
							"type": "uint256"
						}
					],
					"stateMutability": "view",
					"type": "function"
				},
				{
					"inputs": [],
					"name": "getVersion",
					"outputs": [
						{
							"internalType": "uint256",
							"name": "",
							"type": "uint256"
						}
					],
					"stateMutability": "view",
					"type": "function"
				},
				{
					"inputs": [],
					"name": "minimumUsd",
					"outputs": [
						{
							"internalType": "uint256",
							"name": "",
							"type": "uint256"
						}
					],
					"stateMutability": "view",
					"type": "function"
				}
			],
			"devdoc": {
				"kind": "dev",
				"methods": {},
				"version": 1
			},
			"evm": {
				"assembly": "    /* \"FundMe.sol\":258:1776  contract FundMe{... */\n  mstore(0x40, 0x80)\n    /* \"FundMe.sol\":308:312  5e18 */\n  0x4563918244f40000\n    /* \"FundMe.sol\":280:312  uint256 public minimumUsd = 5e18 */\n  0x00\n  sstore\n    /* \"FundMe.sol\":258:1776  contract FundMe{... */\n  callvalue\n  dup1\n  iszero\n  tag_1\n  jumpi\n  0x00\n  dup1\n  revert\ntag_1:\n  pop\n  dataSize(sub_0)\n  dup1\n  dataOffset(sub_0)\n  0x00\n  codecopy\n  0x00\n  return\nstop\n\nsub_0: assembly {\n        /* \"FundMe.sol\":258:1776  contract FundMe{... */\n      mstore(0x40, 0x80)\n      jumpi(tag_1, lt(calldatasize, 0x04))\n      shr(0xe0, calldataload(0x00))\n      dup1\n      0x098de820\n      eq\n      tag_2\n      jumpi\n      dup1\n      0x0d8e6e2c\n      eq\n      tag_3\n      jumpi\n      dup1\n      0x313ce567\n      eq\n      tag_4\n      jumpi\n      dup1\n      0x6e5b6b28\n      eq\n      tag_5\n      jumpi\n      dup1\n      0x8e15f473\n      eq\n      tag_6\n      jumpi\n      dup1\n      0xb60d4288\n      eq\n      tag_7\n      jumpi\n    tag_1:\n      0x00\n      dup1\n      revert\n        /* \"FundMe.sol\":280:312  uint256 public minimumUsd = 5e18 */\n    tag_2:\n      callvalue\n      dup1\n      iszero\n      tag_8\n      jumpi\n      0x00\n      dup1\n      revert\n    tag_8:\n      pop\n      tag_9\n      tag_10\n      jump\t// in\n    tag_9:\n      mload(0x40)\n      tag_11\n      swap2\n      swap1\n      tag_12\n      jump\t// in\n    tag_11:\n      mload(0x40)\n      dup1\n      swap2\n      sub\n      swap1\n      return\n        /* \"FundMe.sol\":1524:1731  function getVersion() public view returns (uint256) {... */\n    tag_3:\n      callvalue\n      dup1\n      iszero\n      tag_13\n      jumpi\n      0x00\n      dup1\n      revert\n    tag_13:\n      pop\n      tag_14\n      tag_15\n      jump\t// in\n    tag_14:\n      mload(0x40)\n      tag_16\n      swap2\n      swap1\n      tag_12\n      jump\t// in\n    tag_16:\n      mload(0x40)\n      dup1\n      swap2\n      sub\n      swap1\n      return\n        /* \"FundMe.sol\":1299:1515  function decimals() public view returns (uint256) {... */\n    tag_4:\n      callvalue\n      dup1\n      iszero\n      tag_17\n      jumpi\n      0x00\n      dup1\n      revert\n    tag_17:\n      pop\n      tag_18\n      tag_19\n      jump\t// in\n    tag_18:\n      mload(0x40)\n      tag_20\n      swap2\n      swap1\n      tag_12\n      jump\t// in\n    tag_20:\n      mload(0x40)\n      dup1\n      swap2\n      sub\n      swap1\n      return\n        /* \"FundMe.sol\":1063:1291  function getConversionRate(uint256 ethAmount) public view returns (uint256) {... */\n    tag_5:\n      callvalue\n      dup1\n      iszero\n      tag_21\n      jumpi\n      0x00\n      dup1\n      revert\n    tag_21:\n      pop\n      tag_22\n      0x04\n      dup1\n      calldatasize\n      sub\n      dup2\n      add\n      swap1\n      tag_23\n      swap2\n      swap1\n      tag_24\n      jump\t// in\n    tag_23:\n      tag_25\n      jump\t// in\n    tag_22:\n      mload(0x40)\n      tag_26\n      swap2\n      swap1\n      tag_12\n      jump\t// in\n    tag_26:\n      mload(0x40)\n      dup1\n      swap2\n      sub\n      swap1\n      return\n        /* \"FundMe.sol\":639:1055  function getLatestPrice() public view returns (uint256) {... */\n    tag_6:\n      callvalue\n      dup1\n      iszero\n      tag_27\n      jumpi\n      0x00\n      dup1\n      revert\n    tag_27:\n      pop\n      tag_28\n      tag_29\n      jump\t// in\n    tag_28:\n      mload(0x40)\n      tag_30\n      swap2\n      swap1\n      tag_12\n      jump\t// in\n    tag_30:\n      mload(0x40)\n      dup1\n      swap2\n      sub\n      swap1\n      return\n        /* \"FundMe.sol\":321:631  function fund() public payable{... */\n    tag_7:\n      tag_31\n      tag_32\n      jump\t// in\n    tag_31:\n      stop\n        /* \"FundMe.sol\":280:312  uint256 public minimumUsd = 5e18 */\n    tag_10:\n      sload(0x00)\n      dup2\n      jump\t// out\n        /* \"FundMe.sol\":1524:1731  function getVersion() public view returns (uint256) {... */\n    tag_15:\n        /* \"FundMe.sol\":1567:1574  uint256 */\n      0x00\n        /* \"FundMe.sol\":1587:1618  AggregatorV3Interface priceFeed */\n      dup1\n        /* \"FundMe.sol\":1643:1685  0x694AA1769357215DE4FAC081bf1f309aDC325306 */\n      0x694aa1769357215de4fac081bf1f309adc325306\n        /* \"FundMe.sol\":1587:1686  AggregatorV3Interface priceFeed = AggregatorV3Interface(0x694AA1769357215DE4FAC081bf1f309aDC325306) */\n      swap1\n      pop\n        /* \"FundMe.sol\":1704:1713  priceFeed */\n      dup1\n        /* \"FundMe.sol\":1704:1721  priceFeed.version */\n      0xffffffffffffffffffffffffffffffffffffffff\n      and\n      0x54fd4d50\n        /* \"FundMe.sol\":1704:1723  priceFeed.version() */\n      mload(0x40)\n      dup2\n      0xffffffff\n      and\n      0xe0\n      shl\n      dup2\n      mstore\n      0x04\n      add\n      0x20\n      mload(0x40)\n      dup1\n      dup4\n      sub\n      dup2\n      dup7\n      gas\n      staticcall\n      iszero\n      dup1\n      iszero\n      tag_35\n      jumpi\n      returndatasize\n      0x00\n      dup1\n      returndatacopy\n      revert(0x00, returndatasize)\n    tag_35:\n      pop\n      pop\n      pop\n      pop\n      mload(0x40)\n      returndatasize\n      not(0x1f)\n      0x1f\n      dup3\n      add\n      and\n      dup3\n      add\n      dup1\n      0x40\n      mstore\n      pop\n      dup2\n      add\n      swap1\n      tag_36\n      swap2\n      swap1\n      tag_37\n      jump\t// in\n    tag_36:\n        /* \"FundMe.sol\":1697:1723  return priceFeed.version() */\n      swap2\n      pop\n      pop\n        /* \"FundMe.sol\":1524:1731  function getVersion() public view returns (uint256) {... */\n      swap1\n      jump\t// out\n        /* \"FundMe.sol\":1299:1515  function decimals() public view returns (uint256) {... */\n    tag_19:\n        /* \"FundMe.sol\":1340:1347  uint256 */\n      0x00\n        /* \"FundMe.sol\":1360:1391  AggregatorV3Interface priceFeed */\n      dup1\n        /* \"FundMe.sol\":1416:1458  0x694AA1769357215DE4FAC081bf1f309aDC325306 */\n      0x694aa1769357215de4fac081bf1f309adc325306\n        /* \"FundMe.sol\":1360:1459  AggregatorV3Interface priceFeed = AggregatorV3Interface(0x694AA1769357215DE4FAC081bf1f309aDC325306) */\n      swap1\n      pop\n        /* \"FundMe.sol\":1486:1495  priceFeed */\n      dup1\n        /* \"FundMe.sol\":1486:1504  priceFeed.decimals */\n      0xffffffffffffffffffffffffffffffffffffffff\n      and\n      0x313ce567\n        /* \"FundMe.sol\":1486:1506  priceFeed.decimals() */\n      mload(0x40)\n      dup2\n      0xffffffff\n      and\n      0xe0\n      shl\n      dup2\n      mstore\n      0x04\n      add\n      0x20\n      mload(0x40)\n      dup1\n      dup4\n      sub\n      dup2\n      dup7\n      gas\n      staticcall\n      iszero\n      dup1\n      iszero\n      tag_40\n      jumpi\n      returndatasize\n      0x00\n      dup1\n      returndatacopy\n      revert(0x00, returndatasize)\n    tag_40:\n      pop\n      pop\n      pop\n      pop\n      mload(0x40)\n      returndatasize\n      not(0x1f)\n      0x1f\n      dup3\n      add\n      and\n      dup3\n      add\n      dup1\n      0x40\n      mstore\n      pop\n      dup2\n      add\n      swap1\n      tag_41\n      swap2\n      swap1\n      tag_42\n      jump\t// in\n    tag_41:\n        /* \"FundMe.sol\":1478:1507  uint256(priceFeed.decimals()) */\n      0xff\n      and\n        /* \"FundMe.sol\":1471:1507  return uint256(priceFeed.decimals()) */\n      swap2\n      pop\n      pop\n        /* \"FundMe.sol\":1299:1515  function decimals() public view returns (uint256) {... */\n      swap1\n      jump\t// out\n        /* \"FundMe.sol\":1063:1291  function getConversionRate(uint256 ethAmount) public view returns (uint256) {... */\n    tag_25:\n        /* \"FundMe.sol\":1130:1137  uint256 */\n      0x00\n        /* \"FundMe.sol\":1150:1166  uint256 ethPrice */\n      dup1\n        /* \"FundMe.sol\":1169:1185  getLatestPrice() */\n      tag_44\n        /* \"FundMe.sol\":1169:1183  getLatestPrice */\n      tag_29\n        /* \"FundMe.sol\":1169:1185  getLatestPrice() */\n      jump\t// in\n    tag_44:\n        /* \"FundMe.sol\":1150:1185  uint256 ethPrice = getLatestPrice() */\n      swap1\n      pop\n        /* \"FundMe.sol\":1196:1218  uint256 ethAmountInUsd */\n      0x00\n        /* \"FundMe.sol\":1247:1251  1e18 */\n      0x0de0b6b3a7640000\n        /* \"FundMe.sol\":1235:1243  ethPrice */\n      dup3\n        /* \"FundMe.sol\":1223:1232  ethAmount */\n      dup6\n        /* \"FundMe.sol\":1223:1243  ethAmount * ethPrice */\n      tag_45\n      swap2\n      swap1\n      tag_46\n      jump\t// in\n    tag_45:\n        /* \"FundMe.sol\":1221:1251  ( ethAmount * ethPrice) / 1e18 */\n      tag_47\n      swap2\n      swap1\n      tag_48\n      jump\t// in\n    tag_47:\n        /* \"FundMe.sol\":1196:1251  uint256 ethAmountInUsd = ( ethAmount * ethPrice) / 1e18 */\n      swap1\n      pop\n        /* \"FundMe.sol\":1269:1283  ethAmountInUsd */\n      dup1\n        /* \"FundMe.sol\":1262:1283  return ethAmountInUsd */\n      swap3\n      pop\n      pop\n      pop\n        /* \"FundMe.sol\":1063:1291  function getConversionRate(uint256 ethAmount) public view returns (uint256) {... */\n      swap2\n      swap1\n      pop\n      jump\t// out\n        /* \"FundMe.sol\":639:1055  function getLatestPrice() public view returns (uint256) {... */\n    tag_29:\n        /* \"FundMe.sol\":686:693  uint256 */\n      0x00\n        /* \"FundMe.sol\":783:814  AggregatorV3Interface priceFeed */\n      dup1\n        /* \"FundMe.sol\":839:881  0x694AA1769357215DE4FAC081bf1f309aDC325306 */\n      0x694aa1769357215de4fac081bf1f309adc325306\n        /* \"FundMe.sol\":783:882  AggregatorV3Interface priceFeed = AggregatorV3Interface(0x694AA1769357215DE4FAC081bf1f309aDC325306) */\n      swap1\n      pop\n        /* \"FundMe.sol\":923:933  int answer */\n      0x00\n        /* \"FundMe.sol\":978:987  priceFeed */\n      dup2\n        /* \"FundMe.sol\":978:1003  priceFeed.latestRoundData */\n      0xffffffffffffffffffffffffffffffffffffffff\n      and\n      0xfeaf968c\n        /* \"FundMe.sol\":978:1005  priceFeed.latestRoundData() */\n      mload(0x40)\n      dup2\n      0xffffffff\n      and\n      0xe0\n      shl\n      dup2\n      mstore\n      0x04\n      add\n      0xa0\n      mload(0x40)\n      dup1\n      dup4\n      sub\n      dup2\n      dup7\n      gas\n      staticcall\n      iszero\n      dup1\n      iszero\n      tag_51\n      jumpi\n      returndatasize\n      0x00\n      dup1\n      returndatacopy\n      revert(0x00, returndatasize)\n    tag_51:\n      pop\n      pop\n      pop\n      pop\n      mload(0x40)\n      returndatasize\n      not(0x1f)\n      0x1f\n      dup3\n      add\n      and\n      dup3\n      add\n      dup1\n      0x40\n      mstore\n      pop\n      dup2\n      add\n      swap1\n      tag_52\n      swap2\n      swap1\n      tag_53\n      jump\t// in\n    tag_52:\n        /* \"FundMe.sol\":893:1005  (... */\n      pop\n      pop\n      pop\n      swap2\n      pop\n      pop\n        /* \"FundMe.sol\":1042:1046  1e10 */\n      0x02540be400\n        /* \"FundMe.sol\":1033:1039  answer */\n      dup2\n        /* \"FundMe.sol\":1033:1046  answer * 1e10 */\n      tag_54\n      swap2\n      swap1\n      tag_55\n      jump\t// in\n    tag_54:\n        /* \"FundMe.sol\":1018:1047  return uint256(answer * 1e10) */\n      swap3\n      pop\n      pop\n      pop\n        /* \"FundMe.sol\":639:1055  function getLatestPrice() public view returns (uint256) {... */\n      swap1\n      jump\t// out\n        /* \"FundMe.sol\":321:631  function fund() public payable{... */\n    tag_32:\n        /* \"FundMe.sol\":477:487  minimumUsd */\n      sload(0x00)\n        /* \"FundMe.sol\":446:474  getConversionRate(msg.value) */\n      tag_57\n        /* \"FundMe.sol\":464:473  msg.value */\n      callvalue\n        /* \"FundMe.sol\":446:463  getConversionRate */\n      tag_25\n        /* \"FundMe.sol\":446:474  getConversionRate(msg.value) */\n      jump\t// in\n    tag_57:\n        /* \"FundMe.sol\":446:487  getConversionRate(msg.value) > minimumUsd */\n      gt\n        /* \"FundMe.sol\":438:515  require(getConversionRate(msg.value) > minimumUsd, \"Didn't send enough ETH\"\t) */\n      tag_58\n      jumpi\n      mload(0x40)\n      0x08c379a000000000000000000000000000000000000000000000000000000000\n      dup2\n      mstore\n      0x04\n      add\n      tag_59\n      swap1\n      tag_60\n      jump\t// in\n    tag_59:\n      mload(0x40)\n      dup1\n      swap2\n      sub\n      swap1\n      revert\n    tag_58:\n        /* \"FundMe.sol\":321:631  function fund() public payable{... */\n      jump\t// out\n        /* \"#utility.yul\":7:84   */\n    tag_61:\n        /* \"#utility.yul\":44:51   */\n      0x00\n        /* \"#utility.yul\":73:78   */\n      dup2\n        /* \"#utility.yul\":62:78   */\n      swap1\n      pop\n        /* \"#utility.yul\":7:84   */\n      swap2\n      swap1\n      pop\n      jump\t// out\n        /* \"#utility.yul\":90:208   */\n    tag_62:\n        /* \"#utility.yul\":177:201   */\n      tag_86\n        /* \"#utility.yul\":195:200   */\n      dup2\n        /* \"#utility.yul\":177:201   */\n      tag_61\n      jump\t// in\n    tag_86:\n        /* \"#utility.yul\":172:175   */\n      dup3\n        /* \"#utility.yul\":165:202   */\n      mstore\n        /* \"#utility.yul\":90:208   */\n      pop\n      pop\n      jump\t// out\n        /* \"#utility.yul\":214:436   */\n    tag_12:\n        /* \"#utility.yul\":307:311   */\n      0x00\n        /* \"#utility.yul\":345:347   */\n      0x20\n        /* \"#utility.yul\":334:343   */\n      dup3\n        /* \"#utility.yul\":330:348   */\n      add\n        /* \"#utility.yul\":322:348   */\n      swap1\n      pop\n        /* \"#utility.yul\":358:429   */\n      tag_88\n        /* \"#utility.yul\":426:427   */\n      0x00\n        /* \"#utility.yul\":415:424   */\n      dup4\n        /* \"#utility.yul\":411:428   */\n      add\n        /* \"#utility.yul\":402:408   */\n      dup5\n        /* \"#utility.yul\":358:429   */\n      tag_62\n      jump\t// in\n    tag_88:\n        /* \"#utility.yul\":214:436   */\n      swap3\n      swap2\n      pop\n      pop\n      jump\t// out\n        /* \"#utility.yul\":523:640   */\n    tag_64:\n        /* \"#utility.yul\":632:633   */\n      0x00\n        /* \"#utility.yul\":629:630   */\n      dup1\n        /* \"#utility.yul\":622:634   */\n      revert\n        /* \"#utility.yul\":769:891   */\n    tag_66:\n        /* \"#utility.yul\":842:866   */\n      tag_93\n        /* \"#utility.yul\":860:865   */\n      dup2\n        /* \"#utility.yul\":842:866   */\n      tag_61\n      jump\t// in\n    tag_93:\n        /* \"#utility.yul\":835:840   */\n      dup2\n        /* \"#utility.yul\":832:867   */\n      eq\n        /* \"#utility.yul\":822:885   */\n      tag_94\n      jumpi\n        /* \"#utility.yul\":881:882   */\n      0x00\n        /* \"#utility.yul\":878:879   */\n      dup1\n        /* \"#utility.yul\":871:883   */\n      revert\n        /* \"#utility.yul\":822:885   */\n    tag_94:\n        /* \"#utility.yul\":769:891   */\n      pop\n      jump\t// out\n        /* \"#utility.yul\":897:1036   */\n    tag_67:\n        /* \"#utility.yul\":943:948   */\n      0x00\n        /* \"#utility.yul\":981:987   */\n      dup2\n        /* \"#utility.yul\":968:988   */\n      calldataload\n        /* \"#utility.yul\":959:988   */\n      swap1\n      pop\n        /* \"#utility.yul\":997:1030   */\n      tag_96\n        /* \"#utility.yul\":1024:1029   */\n      dup2\n        /* \"#utility.yul\":997:1030   */\n      tag_66\n      jump\t// in\n    tag_96:\n        /* \"#utility.yul\":897:1036   */\n      swap3\n      swap2\n      pop\n      pop\n      jump\t// out\n        /* \"#utility.yul\":1042:1371   */\n    tag_24:\n        /* \"#utility.yul\":1101:1107   */\n      0x00\n        /* \"#utility.yul\":1150:1152   */\n      0x20\n        /* \"#utility.yul\":1138:1147   */\n      dup3\n        /* \"#utility.yul\":1129:1136   */\n      dup5\n        /* \"#utility.yul\":1125:1148   */\n      sub\n        /* \"#utility.yul\":1121:1153   */\n      slt\n        /* \"#utility.yul\":1118:1237   */\n      iszero\n      tag_98\n      jumpi\n        /* \"#utility.yul\":1156:1235   */\n      tag_99\n      tag_64\n      jump\t// in\n    tag_99:\n        /* \"#utility.yul\":1118:1237   */\n    tag_98:\n        /* \"#utility.yul\":1276:1277   */\n      0x00\n        /* \"#utility.yul\":1301:1354   */\n      tag_100\n        /* \"#utility.yul\":1346:1353   */\n      dup5\n        /* \"#utility.yul\":1337:1343   */\n      dup3\n        /* \"#utility.yul\":1326:1335   */\n      dup6\n        /* \"#utility.yul\":1322:1344   */\n      add\n        /* \"#utility.yul\":1301:1354   */\n      tag_67\n      jump\t// in\n    tag_100:\n        /* \"#utility.yul\":1291:1354   */\n      swap2\n      pop\n        /* \"#utility.yul\":1247:1364   */\n      pop\n        /* \"#utility.yul\":1042:1371   */\n      swap3\n      swap2\n      pop\n      pop\n      jump\t// out\n        /* \"#utility.yul\":1377:1520   */\n    tag_68:\n        /* \"#utility.yul\":1434:1439   */\n      0x00\n        /* \"#utility.yul\":1465:1471   */\n      dup2\n        /* \"#utility.yul\":1459:1472   */\n      mload\n        /* \"#utility.yul\":1450:1472   */\n      swap1\n      pop\n        /* \"#utility.yul\":1481:1514   */\n      tag_102\n        /* \"#utility.yul\":1508:1513   */\n      dup2\n        /* \"#utility.yul\":1481:1514   */\n      tag_66\n      jump\t// in\n    tag_102:\n        /* \"#utility.yul\":1377:1520   */\n      swap3\n      swap2\n      pop\n      pop\n      jump\t// out\n        /* \"#utility.yul\":1526:1877   */\n    tag_37:\n        /* \"#utility.yul\":1596:1602   */\n      0x00\n        /* \"#utility.yul\":1645:1647   */\n      0x20\n        /* \"#utility.yul\":1633:1642   */\n      dup3\n        /* \"#utility.yul\":1624:1631   */\n      dup5\n        /* \"#utility.yul\":1620:1643   */\n      sub\n        /* \"#utility.yul\":1616:1648   */\n      slt\n        /* \"#utility.yul\":1613:1732   */\n      iszero\n      tag_104\n      jumpi\n        /* \"#utility.yul\":1651:1730   */\n      tag_105\n      tag_64\n      jump\t// in\n    tag_105:\n        /* \"#utility.yul\":1613:1732   */\n    tag_104:\n        /* \"#utility.yul\":1771:1772   */\n      0x00\n        /* \"#utility.yul\":1796:1860   */\n      tag_106\n        /* \"#utility.yul\":1852:1859   */\n      dup5\n        /* \"#utility.yul\":1843:1849   */\n      dup3\n        /* \"#utility.yul\":1832:1841   */\n      dup6\n        /* \"#utility.yul\":1828:1850   */\n      add\n        /* \"#utility.yul\":1796:1860   */\n      tag_68\n      jump\t// in\n    tag_106:\n        /* \"#utility.yul\":1786:1860   */\n      swap2\n      pop\n        /* \"#utility.yul\":1742:1870   */\n      pop\n        /* \"#utility.yul\":1526:1877   */\n      swap3\n      swap2\n      pop\n      pop\n      jump\t// out\n        /* \"#utility.yul\":1883:1969   */\n    tag_69:\n        /* \"#utility.yul\":1918:1925   */\n      0x00\n        /* \"#utility.yul\":1958:1962   */\n      0xff\n        /* \"#utility.yul\":1951:1956   */\n      dup3\n        /* \"#utility.yul\":1947:1963   */\n      and\n        /* \"#utility.yul\":1936:1963   */\n      swap1\n      pop\n        /* \"#utility.yul\":1883:1969   */\n      swap2\n      swap1\n      pop\n      jump\t// out\n        /* \"#utility.yul\":1975:2093   */\n    tag_70:\n        /* \"#utility.yul\":2046:2068   */\n      tag_109\n        /* \"#utility.yul\":2062:2067   */\n      dup2\n        /* \"#utility.yul\":2046:2068   */\n      tag_69\n      jump\t// in\n    tag_109:\n        /* \"#utility.yul\":2039:2044   */\n      dup2\n        /* \"#utility.yul\":2036:2069   */\n      eq\n        /* \"#utility.yul\":2026:2087   */\n      tag_110\n      jumpi\n        /* \"#utility.yul\":2083:2084   */\n      0x00\n        /* \"#utility.yul\":2080:2081   */\n      dup1\n        /* \"#utility.yul\":2073:2085   */\n      revert\n        /* \"#utility.yul\":2026:2087   */\n    tag_110:\n        /* \"#utility.yul\":1975:2093   */\n      pop\n      jump\t// out\n        /* \"#utility.yul\":2099:2238   */\n    tag_71:\n        /* \"#utility.yul\":2154:2159   */\n      0x00\n        /* \"#utility.yul\":2185:2191   */\n      dup2\n        /* \"#utility.yul\":2179:2192   */\n      mload\n        /* \"#utility.yul\":2170:2192   */\n      swap1\n      pop\n        /* \"#utility.yul\":2201:2232   */\n      tag_112\n        /* \"#utility.yul\":2226:2231   */\n      dup2\n        /* \"#utility.yul\":2201:2232   */\n      tag_70\n      jump\t// in\n    tag_112:\n        /* \"#utility.yul\":2099:2238   */\n      swap3\n      swap2\n      pop\n      pop\n      jump\t// out\n        /* \"#utility.yul\":2244:2591   */\n    tag_42:\n        /* \"#utility.yul\":2312:2318   */\n      0x00\n        /* \"#utility.yul\":2361:2363   */\n      0x20\n        /* \"#utility.yul\":2349:2358   */\n      dup3\n        /* \"#utility.yul\":2340:2347   */\n      dup5\n        /* \"#utility.yul\":2336:2359   */\n      sub\n        /* \"#utility.yul\":2332:2364   */\n      slt\n        /* \"#utility.yul\":2329:2448   */\n      iszero\n      tag_114\n      jumpi\n        /* \"#utility.yul\":2367:2446   */\n      tag_115\n      tag_64\n      jump\t// in\n    tag_115:\n        /* \"#utility.yul\":2329:2448   */\n    tag_114:\n        /* \"#utility.yul\":2487:2488   */\n      0x00\n        /* \"#utility.yul\":2512:2574   */\n      tag_116\n        /* \"#utility.yul\":2566:2573   */\n      dup5\n        /* \"#utility.yul\":2557:2563   */\n      dup3\n        /* \"#utility.yul\":2546:2555   */\n      dup6\n        /* \"#utility.yul\":2542:2564   */\n      add\n        /* \"#utility.yul\":2512:2574   */\n      tag_71\n      jump\t// in\n    tag_116:\n        /* \"#utility.yul\":2502:2574   */\n      swap2\n      pop\n        /* \"#utility.yul\":2458:2584   */\n      pop\n        /* \"#utility.yul\":2244:2591   */\n      swap3\n      swap2\n      pop\n      pop\n      jump\t// out\n        /* \"#utility.yul\":2597:2777   */\n    tag_72:\n        /* \"#utility.yul\":2645:2722   */\n      0x4e487b7100000000000000000000000000000000000000000000000000000000\n        /* \"#utility.yul\":2642:2643   */\n      0x00\n        /* \"#utility.yul\":2635:2723   */\n      mstore\n        /* \"#utility.yul\":2742:2746   */\n      0x11\n        /* \"#utility.yul\":2739:2740   */\n      0x04\n        /* \"#utility.yul\":2732:2747   */\n      mstore\n        /* \"#utility.yul\":2766:2770   */\n      0x24\n        /* \"#utility.yul\":2763:2764   */\n      0x00\n        /* \"#utility.yul\":2756:2771   */\n      revert\n        /* \"#utility.yul\":2783:3193   */\n    tag_46:\n        /* \"#utility.yul\":2823:2830   */\n      0x00\n        /* \"#utility.yul\":2846:2866   */\n      tag_119\n        /* \"#utility.yul\":2864:2865   */\n      dup3\n        /* \"#utility.yul\":2846:2866   */\n      tag_61\n      jump\t// in\n    tag_119:\n        /* \"#utility.yul\":2841:2866   */\n      swap2\n      pop\n        /* \"#utility.yul\":2880:2900   */\n      tag_120\n        /* \"#utility.yul\":2898:2899   */\n      dup4\n        /* \"#utility.yul\":2880:2900   */\n      tag_61\n      jump\t// in\n    tag_120:\n        /* \"#utility.yul\":2875:2900   */\n      swap3\n      pop\n        /* \"#utility.yul\":2935:2936   */\n      dup3\n        /* \"#utility.yul\":2932:2933   */\n      dup3\n        /* \"#utility.yul\":2928:2937   */\n      mul\n        /* \"#utility.yul\":2957:2987   */\n      tag_121\n        /* \"#utility.yul\":2975:2986   */\n      dup2\n        /* \"#utility.yul\":2957:2987   */\n      tag_61\n      jump\t// in\n    tag_121:\n        /* \"#utility.yul\":2946:2987   */\n      swap2\n      pop\n        /* \"#utility.yul\":3136:3137   */\n      dup3\n        /* \"#utility.yul\":3127:3134   */\n      dup3\n        /* \"#utility.yul\":3123:3138   */\n      div\n        /* \"#utility.yul\":3120:3121   */\n      dup5\n        /* \"#utility.yul\":3117:3139   */\n      eq\n        /* \"#utility.yul\":3097:3098   */\n      dup4\n        /* \"#utility.yul\":3090:3099   */\n      iszero\n        /* \"#utility.yul\":3070:3153   */\n      or\n        /* \"#utility.yul\":3047:3186   */\n      tag_122\n      jumpi\n        /* \"#utility.yul\":3166:3184   */\n      tag_123\n      tag_72\n      jump\t// in\n    tag_123:\n        /* \"#utility.yul\":3047:3186   */\n    tag_122:\n        /* \"#utility.yul\":2831:3193   */\n      pop\n        /* \"#utility.yul\":2783:3193   */\n      swap3\n      swap2\n      pop\n      pop\n      jump\t// out\n        /* \"#utility.yul\":3199:3379   */\n    tag_73:\n        /* \"#utility.yul\":3247:3324   */\n      0x4e487b7100000000000000000000000000000000000000000000000000000000\n        /* \"#utility.yul\":3244:3245   */\n      0x00\n        /* \"#utility.yul\":3237:3325   */\n      mstore\n        /* \"#utility.yul\":3344:3348   */\n      0x12\n        /* \"#utility.yul\":3341:3342   */\n      0x04\n        /* \"#utility.yul\":3334:3349   */\n      mstore\n        /* \"#utility.yul\":3368:3372   */\n      0x24\n        /* \"#utility.yul\":3365:3366   */\n      0x00\n        /* \"#utility.yul\":3358:3373   */\n      revert\n        /* \"#utility.yul\":3385:3570   */\n    tag_48:\n        /* \"#utility.yul\":3425:3426   */\n      0x00\n        /* \"#utility.yul\":3442:3462   */\n      tag_126\n        /* \"#utility.yul\":3460:3461   */\n      dup3\n        /* \"#utility.yul\":3442:3462   */\n      tag_61\n      jump\t// in\n    tag_126:\n        /* \"#utility.yul\":3437:3462   */\n      swap2\n      pop\n        /* \"#utility.yul\":3476:3496   */\n      tag_127\n        /* \"#utility.yul\":3494:3495   */\n      dup4\n        /* \"#utility.yul\":3476:3496   */\n      tag_61\n      jump\t// in\n    tag_127:\n        /* \"#utility.yul\":3471:3496   */\n      swap3\n      pop\n        /* \"#utility.yul\":3515:3516   */\n      dup3\n        /* \"#utility.yul\":3505:3540   */\n      tag_128\n      jumpi\n        /* \"#utility.yul\":3520:3538   */\n      tag_129\n      tag_73\n      jump\t// in\n    tag_129:\n        /* \"#utility.yul\":3505:3540   */\n    tag_128:\n        /* \"#utility.yul\":3562:3563   */\n      dup3\n        /* \"#utility.yul\":3559:3560   */\n      dup3\n        /* \"#utility.yul\":3555:3564   */\n      div\n        /* \"#utility.yul\":3550:3564   */\n      swap1\n      pop\n        /* \"#utility.yul\":3385:3570   */\n      swap3\n      swap2\n      pop\n      pop\n      jump\t// out\n        /* \"#utility.yul\":3576:3681   */\n    tag_74:\n        /* \"#utility.yul\":3612:3619   */\n      0x00\n        /* \"#utility.yul\":3652:3674   */\n      0xffffffffffffffffffff\n        /* \"#utility.yul\":3645:3650   */\n      dup3\n        /* \"#utility.yul\":3641:3675   */\n      and\n        /* \"#utility.yul\":3630:3675   */\n      swap1\n      pop\n        /* \"#utility.yul\":3576:3681   */\n      swap2\n      swap1\n      pop\n      jump\t// out\n        /* \"#utility.yul\":3687:3807   */\n    tag_75:\n        /* \"#utility.yul\":3759:3782   */\n      tag_132\n        /* \"#utility.yul\":3776:3781   */\n      dup2\n        /* \"#utility.yul\":3759:3782   */\n      tag_74\n      jump\t// in\n    tag_132:\n        /* \"#utility.yul\":3752:3757   */\n      dup2\n        /* \"#utility.yul\":3749:3783   */\n      eq\n        /* \"#utility.yul\":3739:3801   */\n      tag_133\n      jumpi\n        /* \"#utility.yul\":3797:3798   */\n      0x00\n        /* \"#utility.yul\":3794:3795   */\n      dup1\n        /* \"#utility.yul\":3787:3799   */\n      revert\n        /* \"#utility.yul\":3739:3801   */\n    tag_133:\n        /* \"#utility.yul\":3687:3807   */\n      pop\n      jump\t// out\n        /* \"#utility.yul\":3813:3954   */\n    tag_76:\n        /* \"#utility.yul\":3869:3874   */\n      0x00\n        /* \"#utility.yul\":3900:3906   */\n      dup2\n        /* \"#utility.yul\":3894:3907   */\n      mload\n        /* \"#utility.yul\":3885:3907   */\n      swap1\n      pop\n        /* \"#utility.yul\":3916:3948   */\n      tag_135\n        /* \"#utility.yul\":3942:3947   */\n      dup2\n        /* \"#utility.yul\":3916:3948   */\n      tag_75\n      jump\t// in\n    tag_135:\n        /* \"#utility.yul\":3813:3954   */\n      swap3\n      swap2\n      pop\n      pop\n      jump\t// out\n        /* \"#utility.yul\":3960:4036   */\n    tag_77:\n        /* \"#utility.yul\":3996:4003   */\n      0x00\n        /* \"#utility.yul\":4025:4030   */\n      dup2\n        /* \"#utility.yul\":4014:4030   */\n      swap1\n      pop\n        /* \"#utility.yul\":3960:4036   */\n      swap2\n      swap1\n      pop\n      jump\t// out\n        /* \"#utility.yul\":4042:4162   */\n    tag_78:\n        /* \"#utility.yul\":4114:4137   */\n      tag_138\n        /* \"#utility.yul\":4131:4136   */\n      dup2\n        /* \"#utility.yul\":4114:4137   */\n      tag_77\n      jump\t// in\n    tag_138:\n        /* \"#utility.yul\":4107:4112   */\n      dup2\n        /* \"#utility.yul\":4104:4138   */\n      eq\n        /* \"#utility.yul\":4094:4156   */\n      tag_139\n      jumpi\n        /* \"#utility.yul\":4152:4153   */\n      0x00\n        /* \"#utility.yul\":4149:4150   */\n      dup1\n        /* \"#utility.yul\":4142:4154   */\n      revert\n        /* \"#utility.yul\":4094:4156   */\n    tag_139:\n        /* \"#utility.yul\":4042:4162   */\n      pop\n      jump\t// out\n        /* \"#utility.yul\":4168:4309   */\n    tag_79:\n        /* \"#utility.yul\":4224:4229   */\n      0x00\n        /* \"#utility.yul\":4255:4261   */\n      dup2\n        /* \"#utility.yul\":4249:4262   */\n      mload\n        /* \"#utility.yul\":4240:4262   */\n      swap1\n      pop\n        /* \"#utility.yul\":4271:4303   */\n      tag_141\n        /* \"#utility.yul\":4297:4302   */\n      dup2\n        /* \"#utility.yul\":4271:4303   */\n      tag_78\n      jump\t// in\n    tag_141:\n        /* \"#utility.yul\":4168:4309   */\n      swap3\n      swap2\n      pop\n      pop\n      jump\t// out\n        /* \"#utility.yul\":4315:5286   */\n    tag_53:\n        /* \"#utility.yul\":4418:4424   */\n      0x00\n        /* \"#utility.yul\":4426:4432   */\n      dup1\n        /* \"#utility.yul\":4434:4440   */\n      0x00\n        /* \"#utility.yul\":4442:4448   */\n      dup1\n        /* \"#utility.yul\":4450:4456   */\n      0x00\n        /* \"#utility.yul\":4499:4502   */\n      0xa0\n        /* \"#utility.yul\":4487:4496   */\n      dup7\n        /* \"#utility.yul\":4478:4485   */\n      dup9\n        /* \"#utility.yul\":4474:4497   */\n      sub\n        /* \"#utility.yul\":4470:4503   */\n      slt\n        /* \"#utility.yul\":4467:4587   */\n      iszero\n      tag_143\n      jumpi\n        /* \"#utility.yul\":4506:4585   */\n      tag_144\n      tag_64\n      jump\t// in\n    tag_144:\n        /* \"#utility.yul\":4467:4587   */\n    tag_143:\n        /* \"#utility.yul\":4626:4627   */\n      0x00\n        /* \"#utility.yul\":4651:4714   */\n      tag_145\n        /* \"#utility.yul\":4706:4713   */\n      dup9\n        /* \"#utility.yul\":4697:4703   */\n      dup3\n        /* \"#utility.yul\":4686:4695   */\n      dup10\n        /* \"#utility.yul\":4682:4704   */\n      add\n        /* \"#utility.yul\":4651:4714   */\n      tag_76\n      jump\t// in\n    tag_145:\n        /* \"#utility.yul\":4641:4714   */\n      swap6\n      pop\n        /* \"#utility.yul\":4597:4724   */\n      pop\n        /* \"#utility.yul\":4763:4765   */\n      0x20\n        /* \"#utility.yul\":4789:4852   */\n      tag_146\n        /* \"#utility.yul\":4844:4851   */\n      dup9\n        /* \"#utility.yul\":4835:4841   */\n      dup3\n        /* \"#utility.yul\":4824:4833   */\n      dup10\n        /* \"#utility.yul\":4820:4842   */\n      add\n        /* \"#utility.yul\":4789:4852   */\n      tag_79\n      jump\t// in\n    tag_146:\n        /* \"#utility.yul\":4779:4852   */\n      swap5\n      pop\n        /* \"#utility.yul\":4734:4862   */\n      pop\n        /* \"#utility.yul\":4901:4903   */\n      0x40\n        /* \"#utility.yul\":4927:4991   */\n      tag_147\n        /* \"#utility.yul\":4983:4990   */\n      dup9\n        /* \"#utility.yul\":4974:4980   */\n      dup3\n        /* \"#utility.yul\":4963:4972   */\n      dup10\n        /* \"#utility.yul\":4959:4981   */\n      add\n        /* \"#utility.yul\":4927:4991   */\n      tag_68\n      jump\t// in\n    tag_147:\n        /* \"#utility.yul\":4917:4991   */\n      swap4\n      pop\n        /* \"#utility.yul\":4872:5001   */\n      pop\n        /* \"#utility.yul\":5040:5042   */\n      0x60\n        /* \"#utility.yul\":5066:5130   */\n      tag_148\n        /* \"#utility.yul\":5122:5129   */\n      dup9\n        /* \"#utility.yul\":5113:5119   */\n      dup3\n        /* \"#utility.yul\":5102:5111   */\n      dup10\n        /* \"#utility.yul\":5098:5120   */\n      add\n        /* \"#utility.yul\":5066:5130   */\n      tag_68\n      jump\t// in\n    tag_148:\n        /* \"#utility.yul\":5056:5130   */\n      swap3\n      pop\n        /* \"#utility.yul\":5011:5140   */\n      pop\n        /* \"#utility.yul\":5179:5182   */\n      0x80\n        /* \"#utility.yul\":5206:5269   */\n      tag_149\n        /* \"#utility.yul\":5261:5268   */\n      dup9\n        /* \"#utility.yul\":5252:5258   */\n      dup3\n        /* \"#utility.yul\":5241:5250   */\n      dup10\n        /* \"#utility.yul\":5237:5259   */\n      add\n        /* \"#utility.yul\":5206:5269   */\n      tag_76\n      jump\t// in\n    tag_149:\n        /* \"#utility.yul\":5196:5269   */\n      swap2\n      pop\n        /* \"#utility.yul\":5150:5279   */\n      pop\n        /* \"#utility.yul\":4315:5286   */\n      swap3\n      swap6\n      pop\n      swap3\n      swap6\n      swap1\n      swap4\n      pop\n      jump\t// out\n        /* \"#utility.yul\":5292:5848   */\n    tag_55:\n        /* \"#utility.yul\":5331:5338   */\n      0x00\n        /* \"#utility.yul\":5354:5373   */\n      tag_151\n        /* \"#utility.yul\":5371:5372   */\n      dup3\n        /* \"#utility.yul\":5354:5373   */\n      tag_77\n      jump\t// in\n    tag_151:\n        /* \"#utility.yul\":5349:5373   */\n      swap2\n      pop\n        /* \"#utility.yul\":5387:5406   */\n      tag_152\n        /* \"#utility.yul\":5404:5405   */\n      dup4\n        /* \"#utility.yul\":5387:5406   */\n      tag_77\n      jump\t// in\n    tag_152:\n        /* \"#utility.yul\":5382:5406   */\n      swap3\n      pop\n        /* \"#utility.yul\":5441:5442   */\n      dup3\n        /* \"#utility.yul\":5438:5439   */\n      dup3\n        /* \"#utility.yul\":5434:5443   */\n      mul\n        /* \"#utility.yul\":5463:5492   */\n      tag_153\n        /* \"#utility.yul\":5480:5491   */\n      dup2\n        /* \"#utility.yul\":5463:5492   */\n      tag_77\n      jump\t// in\n    tag_153:\n        /* \"#utility.yul\":5452:5492   */\n      swap2\n      pop\n        /* \"#utility.yul\":5550:5616   */\n      0x8000000000000000000000000000000000000000000000000000000000000000\n        /* \"#utility.yul\":5547:5548   */\n      dup5\n        /* \"#utility.yul\":5544:5617   */\n      eq\n        /* \"#utility.yul\":5540:5541   */\n      0x00\n        /* \"#utility.yul\":5537:5538   */\n      dup5\n        /* \"#utility.yul\":5533:5542   */\n      slt\n        /* \"#utility.yul\":5529:5618   */\n      and\n        /* \"#utility.yul\":5526:5641   */\n      iszero\n      tag_154\n      jumpi\n        /* \"#utility.yul\":5621:5639   */\n      tag_155\n      tag_72\n      jump\t// in\n    tag_155:\n        /* \"#utility.yul\":5526:5641   */\n    tag_154:\n        /* \"#utility.yul\":5791:5792   */\n      dup3\n        /* \"#utility.yul\":5782:5789   */\n      dup3\n        /* \"#utility.yul\":5777:5793   */\n      sdiv\n        /* \"#utility.yul\":5774:5775   */\n      dup5\n        /* \"#utility.yul\":5771:5794   */\n      eq\n        /* \"#utility.yul\":5751:5752   */\n      dup4\n        /* \"#utility.yul\":5744:5753   */\n      iszero\n        /* \"#utility.yul\":5724:5808   */\n      or\n        /* \"#utility.yul\":5701:5841   */\n      tag_156\n      jumpi\n        /* \"#utility.yul\":5821:5839   */\n      tag_157\n      tag_72\n      jump\t// in\n    tag_157:\n        /* \"#utility.yul\":5701:5841   */\n    tag_156:\n        /* \"#utility.yul\":5339:5848   */\n      pop\n        /* \"#utility.yul\":5292:5848   */\n      swap3\n      swap2\n      pop\n      pop\n      jump\t// out\n        /* \"#utility.yul\":5854:6023   */\n    tag_80:\n        /* \"#utility.yul\":5938:5949   */\n      0x00\n        /* \"#utility.yul\":5972:5978   */\n      dup3\n        /* \"#utility.yul\":5967:5970   */\n      dup3\n        /* \"#utility.yul\":5960:5979   */\n      mstore\n        /* \"#utility.yul\":6012:6016   */\n      0x20\n        /* \"#utility.yul\":6007:6010   */\n      dup3\n        /* \"#utility.yul\":6003:6017   */\n      add\n        /* \"#utility.yul\":5988:6017   */\n      swap1\n      pop\n        /* \"#utility.yul\":5854:6023   */\n      swap3\n      swap2\n      pop\n      pop\n      jump\t// out\n        /* \"#utility.yul\":6029:6201   */\n    tag_81:\n        /* \"#utility.yul\":6169:6193   */\n      0x4469646e27742073656e6420656e6f7567682045544800000000000000000000\n        /* \"#utility.yul\":6165:6166   */\n      0x00\n        /* \"#utility.yul\":6157:6163   */\n      dup3\n        /* \"#utility.yul\":6153:6167   */\n      add\n        /* \"#utility.yul\":6146:6194   */\n      mstore\n        /* \"#utility.yul\":6029:6201   */\n      pop\n      jump\t// out\n        /* \"#utility.yul\":6207:6573   */\n    tag_82:\n        /* \"#utility.yul\":6349:6352   */\n      0x00\n        /* \"#utility.yul\":6370:6437   */\n      tag_161\n        /* \"#utility.yul\":6434:6436   */\n      0x16\n        /* \"#utility.yul\":6429:6432   */\n      dup4\n        /* \"#utility.yul\":6370:6437   */\n      tag_80\n      jump\t// in\n    tag_161:\n        /* \"#utility.yul\":6363:6437   */\n      swap2\n      pop\n        /* \"#utility.yul\":6446:6539   */\n      tag_162\n        /* \"#utility.yul\":6535:6538   */\n      dup3\n        /* \"#utility.yul\":6446:6539   */\n      tag_81\n      jump\t// in\n    tag_162:\n        /* \"#utility.yul\":6564:6566   */\n      0x20\n        /* \"#utility.yul\":6559:6562   */\n      dup3\n        /* \"#utility.yul\":6555:6567   */\n      add\n        /* \"#utility.yul\":6548:6567   */\n      swap1\n      pop\n        /* \"#utility.yul\":6207:6573   */\n      swap2\n      swap1\n      pop\n      jump\t// out\n        /* \"#utility.yul\":6579:6998   */\n    tag_60:\n        /* \"#utility.yul\":6745:6749   */\n      0x00\n        /* \"#utility.yul\":6783:6785   */\n      0x20\n        /* \"#utility.yul\":6772:6781   */\n      dup3\n        /* \"#utility.yul\":6768:6786   */\n      add\n        /* \"#utility.yul\":6760:6786   */\n      swap1\n      pop\n        /* \"#utility.yul\":6832:6841   */\n      dup2\n        /* \"#utility.yul\":6826:6830   */\n      dup2\n        /* \"#utility.yul\":6822:6842   */\n      sub\n        /* \"#utility.yul\":6818:6819   */\n      0x00\n        /* \"#utility.yul\":6807:6816   */\n      dup4\n        /* \"#utility.yul\":6803:6820   */\n      add\n        /* \"#utility.yul\":6796:6843   */\n      mstore\n        /* \"#utility.yul\":6860:6991   */\n      tag_164\n        /* \"#utility.yul\":6986:6990   */\n      dup2\n        /* \"#utility.yul\":6860:6991   */\n      tag_82\n      jump\t// in\n    tag_164:\n        /* \"#utility.yul\":6852:6991   */\n      swap1\n      pop\n        /* \"#utility.yul\":6579:6998   */\n      swap2\n      swap1\n      pop\n      jump\t// out\n\n    auxdata: 0xa26469706673582212204d248f3afe8cff6e78ce488f2bcd7c357899c5abd9907816f2f865a816fe588664736f6c634300081a0033\n}\n",
				"bytecode": {
					"linkReferences": {},
					"object": "6080604052674563918244f400005f553480156019575f80fd5b50610792806100275f395ff3fe608060405260043610610054575f3560e01c8063098de820146100585780630d8e6e2c14610082578063313ce567146100ac5780636e5b6b28146100d65780638e15f47314610112578063b60d42881461013c575b5f80fd5b348015610063575f80fd5b5061006c610146565b60405161007991906103a8565b60405180910390f35b34801561008d575f80fd5b5061009661014b565b6040516100a391906103a8565b60405180910390f35b3480156100b7575f80fd5b506100c06101d7565b6040516100cd91906103a8565b60405180910390f35b3480156100e1575f80fd5b506100fc60048036038101906100f791906103ef565b610266565b60405161010991906103a8565b60405180910390f35b34801561011d575f80fd5b5061012661029e565b60405161013391906103a8565b60405180910390f35b610144610343565b005b5f5481565b5f8073694aa1769357215de4fac081bf1f309adc32530690508073ffffffffffffffffffffffffffffffffffffffff166354fd4d506040518163ffffffff1660e01b8152600401602060405180830381865afa1580156101ad573d5f803e3d5ffd5b505050506040513d601f19601f820116820180604052508101906101d1919061042e565b91505090565b5f8073694aa1769357215de4fac081bf1f309adc32530690508073ffffffffffffffffffffffffffffffffffffffff1663313ce5676040518163ffffffff1660e01b8152600401602060405180830381865afa158015610239573d5f803e3d5ffd5b505050506040513d601f19601f8201168201806040525081019061025d919061048f565b60ff1691505090565b5f8061027061029e565b90505f670de0b6b3a7640000828561028891906104e7565b6102929190610555565b90508092505050919050565b5f8073694aa1769357215de4fac081bf1f309adc32530690505f8173ffffffffffffffffffffffffffffffffffffffff1663feaf968c6040518163ffffffff1660e01b815260040160a060405180830381865afa158015610301573d5f803e3d5ffd5b505050506040513d601f19601f8201168201806040525081019061032591906105f7565b5050509150506402540be4008161033c919061066e565b9250505090565b5f5461034e34610266565b1161038e576040517f08c379a00000000000000000000000000000000000000000000000000000000081526004016103859061073e565b60405180910390fd5b565b5f819050919050565b6103a281610390565b82525050565b5f6020820190506103bb5f830184610399565b92915050565b5f80fd5b6103ce81610390565b81146103d8575f80fd5b50565b5f813590506103e9816103c5565b92915050565b5f60208284031215610404576104036103c1565b5b5f610411848285016103db565b91505092915050565b5f81519050610428816103c5565b92915050565b5f60208284031215610443576104426103c1565b5b5f6104508482850161041a565b91505092915050565b5f60ff82169050919050565b61046e81610459565b8114610478575f80fd5b50565b5f8151905061048981610465565b92915050565b5f602082840312156104a4576104a36103c1565b5b5f6104b18482850161047b565b91505092915050565b7f4e487b71000000000000000000000000000000000000000000000000000000005f52601160045260245ffd5b5f6104f182610390565b91506104fc83610390565b925082820261050a81610390565b91508282048414831517610521576105206104ba565b5b5092915050565b7f4e487b71000000000000000000000000000000000000000000000000000000005f52601260045260245ffd5b5f61055f82610390565b915061056a83610390565b92508261057a57610579610528565b5b828204905092915050565b5f69ffffffffffffffffffff82169050919050565b6105a381610585565b81146105ad575f80fd5b50565b5f815190506105be8161059a565b92915050565b5f819050919050565b6105d6816105c4565b81146105e0575f80fd5b50565b5f815190506105f1816105cd565b92915050565b5f805f805f60a086880312156106105761060f6103c1565b5b5f61061d888289016105b0565b955050602061062e888289016105e3565b945050604061063f8882890161041a565b93505060606106508882890161041a565b9250506080610661888289016105b0565b9150509295509295909350565b5f610678826105c4565b9150610683836105c4565b9250828202610691816105c4565b91507f800000000000000000000000000000000000000000000000000000000000000084145f841216156106c8576106c76104ba565b5b82820584148315176106dd576106dc6104ba565b5b5092915050565b5f82825260208201905092915050565b7f4469646e27742073656e6420656e6f75676820455448000000000000000000005f82015250565b5f6107286016836106e4565b9150610733826106f4565b602082019050919050565b5f6020820190508181035f8301526107558161071c565b905091905056fea26469706673582212204d248f3afe8cff6e78ce488f2bcd7c357899c5abd9907816f2f865a816fe588664736f6c634300081a0033",
					"opcodes": "PUSH1 0x80 PUSH1 0x40 MSTORE PUSH8 0x4563918244F40000 PUSH0 SSTORE CALLVALUE DUP1 ISZERO PUSH1 0x19 JUMPI PUSH0 DUP1 REVERT JUMPDEST POP PUSH2 0x792 DUP1 PUSH2 0x27 PUSH0 CODECOPY PUSH0 RETURN INVALID PUSH1 0x80 PUSH1 0x40 MSTORE PUSH1 0x4 CALLDATASIZE LT PUSH2 0x54 JUMPI PUSH0 CALLDATALOAD PUSH1 0xE0 SHR DUP1 PUSH4 0x98DE820 EQ PUSH2 0x58 JUMPI DUP1 PUSH4 0xD8E6E2C EQ PUSH2 0x82 JUMPI DUP1 PUSH4 0x313CE567 EQ PUSH2 0xAC JUMPI DUP1 PUSH4 0x6E5B6B28 EQ PUSH2 0xD6 JUMPI DUP1 PUSH4 0x8E15F473 EQ PUSH2 0x112 JUMPI DUP1 PUSH4 0xB60D4288 EQ PUSH2 0x13C JUMPI JUMPDEST PUSH0 DUP1 REVERT JUMPDEST CALLVALUE DUP1 ISZERO PUSH2 0x63 JUMPI PUSH0 DUP1 REVERT JUMPDEST POP PUSH2 0x6C PUSH2 0x146 JUMP JUMPDEST PUSH1 0x40 MLOAD PUSH2 0x79 SWAP2 SWAP1 PUSH2 0x3A8 JUMP JUMPDEST PUSH1 0x40 MLOAD DUP1 SWAP2 SUB SWAP1 RETURN JUMPDEST CALLVALUE DUP1 ISZERO PUSH2 0x8D JUMPI PUSH0 DUP1 REVERT JUMPDEST POP PUSH2 0x96 PUSH2 0x14B JUMP JUMPDEST PUSH1 0x40 MLOAD PUSH2 0xA3 SWAP2 SWAP1 PUSH2 0x3A8 JUMP JUMPDEST PUSH1 0x40 MLOAD DUP1 SWAP2 SUB SWAP1 RETURN JUMPDEST CALLVALUE DUP1 ISZERO PUSH2 0xB7 JUMPI PUSH0 DUP1 REVERT JUMPDEST POP PUSH2 0xC0 PUSH2 0x1D7 JUMP JUMPDEST PUSH1 0x40 MLOAD PUSH2 0xCD SWAP2 SWAP1 PUSH2 0x3A8 JUMP JUMPDEST PUSH1 0x40 MLOAD DUP1 SWAP2 SUB SWAP1 RETURN JUMPDEST CALLVALUE DUP1 ISZERO PUSH2 0xE1 JUMPI PUSH0 DUP1 REVERT JUMPDEST POP PUSH2 0xFC PUSH1 0x4 DUP1 CALLDATASIZE SUB DUP2 ADD SWAP1 PUSH2 0xF7 SWAP2 SWAP1 PUSH2 0x3EF JUMP JUMPDEST PUSH2 0x266 JUMP JUMPDEST PUSH1 0x40 MLOAD PUSH2 0x109 SWAP2 SWAP1 PUSH2 0x3A8 JUMP JUMPDEST PUSH1 0x40 MLOAD DUP1 SWAP2 SUB SWAP1 RETURN JUMPDEST CALLVALUE DUP1 ISZERO PUSH2 0x11D JUMPI PUSH0 DUP1 REVERT JUMPDEST POP PUSH2 0x126 PUSH2 0x29E JUMP JUMPDEST PUSH1 0x40 MLOAD PUSH2 0x133 SWAP2 SWAP1 PUSH2 0x3A8 JUMP JUMPDEST PUSH1 0x40 MLOAD DUP1 SWAP2 SUB SWAP1 RETURN JUMPDEST PUSH2 0x144 PUSH2 0x343 JUMP JUMPDEST STOP JUMPDEST PUSH0 SLOAD DUP2 JUMP JUMPDEST PUSH0 DUP1 PUSH20 0x694AA1769357215DE4FAC081BF1F309ADC325306 SWAP1 POP DUP1 PUSH20 0xFFFFFFFFFFFFFFFFFFFFFFFFFFFFFFFFFFFFFFFF AND PUSH4 0x54FD4D50 PUSH1 0x40 MLOAD DUP2 PUSH4 0xFFFFFFFF AND PUSH1 0xE0 SHL DUP2 MSTORE PUSH1 0x4 ADD PUSH1 0x20 PUSH1 0x40 MLOAD DUP1 DUP4 SUB DUP2 DUP7 GAS STATICCALL ISZERO DUP1 ISZERO PUSH2 0x1AD JUMPI RETURNDATASIZE PUSH0 DUP1 RETURNDATACOPY RETURNDATASIZE PUSH0 REVERT JUMPDEST POP POP POP POP PUSH1 0x40 MLOAD RETURNDATASIZE PUSH1 0x1F NOT PUSH1 0x1F DUP3 ADD AND DUP3 ADD DUP1 PUSH1 0x40 MSTORE POP DUP2 ADD SWAP1 PUSH2 0x1D1 SWAP2 SWAP1 PUSH2 0x42E JUMP JUMPDEST SWAP2 POP POP SWAP1 JUMP JUMPDEST PUSH0 DUP1 PUSH20 0x694AA1769357215DE4FAC081BF1F309ADC325306 SWAP1 POP DUP1 PUSH20 0xFFFFFFFFFFFFFFFFFFFFFFFFFFFFFFFFFFFFFFFF AND PUSH4 0x313CE567 PUSH1 0x40 MLOAD DUP2 PUSH4 0xFFFFFFFF AND PUSH1 0xE0 SHL DUP2 MSTORE PUSH1 0x4 ADD PUSH1 0x20 PUSH1 0x40 MLOAD DUP1 DUP4 SUB DUP2 DUP7 GAS STATICCALL ISZERO DUP1 ISZERO PUSH2 0x239 JUMPI RETURNDATASIZE PUSH0 DUP1 RETURNDATACOPY RETURNDATASIZE PUSH0 REVERT JUMPDEST POP POP POP POP PUSH1 0x40 MLOAD RETURNDATASIZE PUSH1 0x1F NOT PUSH1 0x1F DUP3 ADD AND DUP3 ADD DUP1 PUSH1 0x40 MSTORE POP DUP2 ADD SWAP1 PUSH2 0x25D SWAP2 SWAP1 PUSH2 0x48F JUMP JUMPDEST PUSH1 0xFF AND SWAP2 POP POP SWAP1 JUMP JUMPDEST PUSH0 DUP1 PUSH2 0x270 PUSH2 0x29E JUMP JUMPDEST SWAP1 POP PUSH0 PUSH8 0xDE0B6B3A7640000 DUP3 DUP6 PUSH2 0x288 SWAP2 SWAP1 PUSH2 0x4E7 JUMP JUMPDEST PUSH2 0x292 SWAP2 SWAP1 PUSH2 0x555 JUMP JUMPDEST SWAP1 POP DUP1 SWAP3 POP POP POP SWAP2 SWAP1 POP JUMP JUMPDEST PUSH0 DUP1 PUSH20 0x694AA1769357215DE4FAC081BF1F309ADC325306 SWAP1 POP PUSH0 DUP2 PUSH20 0xFFFFFFFFFFFFFFFFFFFFFFFFFFFFFFFFFFFFFFFF AND PUSH4 0xFEAF968C PUSH1 0x40 MLOAD DUP2 PUSH4 0xFFFFFFFF AND PUSH1 0xE0 SHL DUP2 MSTORE PUSH1 0x4 ADD PUSH1 0xA0 PUSH1 0x40 MLOAD DUP1 DUP4 SUB DUP2 DUP7 GAS STATICCALL ISZERO DUP1 ISZERO PUSH2 0x301 JUMPI RETURNDATASIZE PUSH0 DUP1 RETURNDATACOPY RETURNDATASIZE PUSH0 REVERT JUMPDEST POP POP POP POP PUSH1 0x40 MLOAD RETURNDATASIZE PUSH1 0x1F NOT PUSH1 0x1F DUP3 ADD AND DUP3 ADD DUP1 PUSH1 0x40 MSTORE POP DUP2 ADD SWAP1 PUSH2 0x325 SWAP2 SWAP1 PUSH2 0x5F7 JUMP JUMPDEST POP POP POP SWAP2 POP POP PUSH5 0x2540BE400 DUP2 PUSH2 0x33C SWAP2 SWAP1 PUSH2 0x66E JUMP JUMPDEST SWAP3 POP POP POP SWAP1 JUMP JUMPDEST PUSH0 SLOAD PUSH2 0x34E CALLVALUE PUSH2 0x266 JUMP JUMPDEST GT PUSH2 0x38E JUMPI PUSH1 0x40 MLOAD PUSH32 0x8C379A000000000000000000000000000000000000000000000000000000000 DUP2 MSTORE PUSH1 0x4 ADD PUSH2 0x385 SWAP1 PUSH2 0x73E JUMP JUMPDEST PUSH1 0x40 MLOAD DUP1 SWAP2 SUB SWAP1 REVERT JUMPDEST JUMP JUMPDEST PUSH0 DUP2 SWAP1 POP SWAP2 SWAP1 POP JUMP JUMPDEST PUSH2 0x3A2 DUP2 PUSH2 0x390 JUMP JUMPDEST DUP3 MSTORE POP POP JUMP JUMPDEST PUSH0 PUSH1 0x20 DUP3 ADD SWAP1 POP PUSH2 0x3BB PUSH0 DUP4 ADD DUP5 PUSH2 0x399 JUMP JUMPDEST SWAP3 SWAP2 POP POP JUMP JUMPDEST PUSH0 DUP1 REVERT JUMPDEST PUSH2 0x3CE DUP2 PUSH2 0x390 JUMP JUMPDEST DUP2 EQ PUSH2 0x3D8 JUMPI PUSH0 DUP1 REVERT JUMPDEST POP JUMP JUMPDEST PUSH0 DUP2 CALLDATALOAD SWAP1 POP PUSH2 0x3E9 DUP2 PUSH2 0x3C5 JUMP JUMPDEST SWAP3 SWAP2 POP POP JUMP JUMPDEST PUSH0 PUSH1 0x20 DUP3 DUP5 SUB SLT ISZERO PUSH2 0x404 JUMPI PUSH2 0x403 PUSH2 0x3C1 JUMP JUMPDEST JUMPDEST PUSH0 PUSH2 0x411 DUP5 DUP3 DUP6 ADD PUSH2 0x3DB JUMP JUMPDEST SWAP2 POP POP SWAP3 SWAP2 POP POP JUMP JUMPDEST PUSH0 DUP2 MLOAD SWAP1 POP PUSH2 0x428 DUP2 PUSH2 0x3C5 JUMP JUMPDEST SWAP3 SWAP2 POP POP JUMP JUMPDEST PUSH0 PUSH1 0x20 DUP3 DUP5 SUB SLT ISZERO PUSH2 0x443 JUMPI PUSH2 0x442 PUSH2 0x3C1 JUMP JUMPDEST JUMPDEST PUSH0 PUSH2 0x450 DUP5 DUP3 DUP6 ADD PUSH2 0x41A JUMP JUMPDEST SWAP2 POP POP SWAP3 SWAP2 POP POP JUMP JUMPDEST PUSH0 PUSH1 0xFF DUP3 AND SWAP1 POP SWAP2 SWAP1 POP JUMP JUMPDEST PUSH2 0x46E DUP2 PUSH2 0x459 JUMP JUMPDEST DUP2 EQ PUSH2 0x478 JUMPI PUSH0 DUP1 REVERT JUMPDEST POP JUMP JUMPDEST PUSH0 DUP2 MLOAD SWAP1 POP PUSH2 0x489 DUP2 PUSH2 0x465 JUMP JUMPDEST SWAP3 SWAP2 POP POP JUMP JUMPDEST PUSH0 PUSH1 0x20 DUP3 DUP5 SUB SLT ISZERO PUSH2 0x4A4 JUMPI PUSH2 0x4A3 PUSH2 0x3C1 JUMP JUMPDEST JUMPDEST PUSH0 PUSH2 0x4B1 DUP5 DUP3 DUP6 ADD PUSH2 0x47B JUMP JUMPDEST SWAP2 POP POP SWAP3 SWAP2 POP POP JUMP JUMPDEST PUSH32 0x4E487B7100000000000000000000000000000000000000000000000000000000 PUSH0 MSTORE PUSH1 0x11 PUSH1 0x4 MSTORE PUSH1 0x24 PUSH0 REVERT JUMPDEST PUSH0 PUSH2 0x4F1 DUP3 PUSH2 0x390 JUMP JUMPDEST SWAP2 POP PUSH2 0x4FC DUP4 PUSH2 0x390 JUMP JUMPDEST SWAP3 POP DUP3 DUP3 MUL PUSH2 0x50A DUP2 PUSH2 0x390 JUMP JUMPDEST SWAP2 POP DUP3 DUP3 DIV DUP5 EQ DUP4 ISZERO OR PUSH2 0x521 JUMPI PUSH2 0x520 PUSH2 0x4BA JUMP JUMPDEST JUMPDEST POP SWAP3 SWAP2 POP POP JUMP JUMPDEST PUSH32 0x4E487B7100000000000000000000000000000000000000000000000000000000 PUSH0 MSTORE PUSH1 0x12 PUSH1 0x4 MSTORE PUSH1 0x24 PUSH0 REVERT JUMPDEST PUSH0 PUSH2 0x55F DUP3 PUSH2 0x390 JUMP JUMPDEST SWAP2 POP PUSH2 0x56A DUP4 PUSH2 0x390 JUMP JUMPDEST SWAP3 POP DUP3 PUSH2 0x57A JUMPI PUSH2 0x579 PUSH2 0x528 JUMP JUMPDEST JUMPDEST DUP3 DUP3 DIV SWAP1 POP SWAP3 SWAP2 POP POP JUMP JUMPDEST PUSH0 PUSH10 0xFFFFFFFFFFFFFFFFFFFF DUP3 AND SWAP1 POP SWAP2 SWAP1 POP JUMP JUMPDEST PUSH2 0x5A3 DUP2 PUSH2 0x585 JUMP JUMPDEST DUP2 EQ PUSH2 0x5AD JUMPI PUSH0 DUP1 REVERT JUMPDEST POP JUMP JUMPDEST PUSH0 DUP2 MLOAD SWAP1 POP PUSH2 0x5BE DUP2 PUSH2 0x59A JUMP JUMPDEST SWAP3 SWAP2 POP POP JUMP JUMPDEST PUSH0 DUP2 SWAP1 POP SWAP2 SWAP1 POP JUMP JUMPDEST PUSH2 0x5D6 DUP2 PUSH2 0x5C4 JUMP JUMPDEST DUP2 EQ PUSH2 0x5E0 JUMPI PUSH0 DUP1 REVERT JUMPDEST POP JUMP JUMPDEST PUSH0 DUP2 MLOAD SWAP1 POP PUSH2 0x5F1 DUP2 PUSH2 0x5CD JUMP JUMPDEST SWAP3 SWAP2 POP POP JUMP JUMPDEST PUSH0 DUP1 PUSH0 DUP1 PUSH0 PUSH1 0xA0 DUP7 DUP9 SUB SLT ISZERO PUSH2 0x610 JUMPI PUSH2 0x60F PUSH2 0x3C1 JUMP JUMPDEST JUMPDEST PUSH0 PUSH2 0x61D DUP9 DUP3 DUP10 ADD PUSH2 0x5B0 JUMP JUMPDEST SWAP6 POP POP PUSH1 0x20 PUSH2 0x62E DUP9 DUP3 DUP10 ADD PUSH2 0x5E3 JUMP JUMPDEST SWAP5 POP POP PUSH1 0x40 PUSH2 0x63F DUP9 DUP3 DUP10 ADD PUSH2 0x41A JUMP JUMPDEST SWAP4 POP POP PUSH1 0x60 PUSH2 0x650 DUP9 DUP3 DUP10 ADD PUSH2 0x41A JUMP JUMPDEST SWAP3 POP POP PUSH1 0x80 PUSH2 0x661 DUP9 DUP3 DUP10 ADD PUSH2 0x5B0 JUMP JUMPDEST SWAP2 POP POP SWAP3 SWAP6 POP SWAP3 SWAP6 SWAP1 SWAP4 POP JUMP JUMPDEST PUSH0 PUSH2 0x678 DUP3 PUSH2 0x5C4 JUMP JUMPDEST SWAP2 POP PUSH2 0x683 DUP4 PUSH2 0x5C4 JUMP JUMPDEST SWAP3 POP DUP3 DUP3 MUL PUSH2 0x691 DUP2 PUSH2 0x5C4 JUMP JUMPDEST SWAP2 POP PUSH32 0x8000000000000000000000000000000000000000000000000000000000000000 DUP5 EQ PUSH0 DUP5 SLT AND ISZERO PUSH2 0x6C8 JUMPI PUSH2 0x6C7 PUSH2 0x4BA JUMP JUMPDEST JUMPDEST DUP3 DUP3 SDIV DUP5 EQ DUP4 ISZERO OR PUSH2 0x6DD JUMPI PUSH2 0x6DC PUSH2 0x4BA JUMP JUMPDEST JUMPDEST POP SWAP3 SWAP2 POP POP JUMP JUMPDEST PUSH0 DUP3 DUP3 MSTORE PUSH1 0x20 DUP3 ADD SWAP1 POP SWAP3 SWAP2 POP POP JUMP JUMPDEST PUSH32 0x4469646E27742073656E6420656E6F7567682045544800000000000000000000 PUSH0 DUP3 ADD MSTORE POP JUMP JUMPDEST PUSH0 PUSH2 0x728 PUSH1 0x16 DUP4 PUSH2 0x6E4 JUMP JUMPDEST SWAP2 POP PUSH2 0x733 DUP3 PUSH2 0x6F4 JUMP JUMPDEST PUSH1 0x20 DUP3 ADD SWAP1 POP SWAP2 SWAP1 POP JUMP JUMPDEST PUSH0 PUSH1 0x20 DUP3 ADD SWAP1 POP DUP2 DUP2 SUB PUSH0 DUP4 ADD MSTORE PUSH2 0x755 DUP2 PUSH2 0x71C JUMP JUMPDEST SWAP1 POP SWAP2 SWAP1 POP JUMP INVALID LOG2 PUSH5 0x6970667358 0x22 SLT KECCAK256 0x4D 0x24 DUP16 GASPRICE INVALID DUP13 SELFDESTRUCT PUSH15 0x78CE488F2BCD7C357899C5ABD99078 AND CALLCODE 0xF8 PUSH6 0xA816FE588664 PUSH20 0x6F6C634300081A00330000000000000000000000 "
				},
				"gasEstimates": {
					"creation": {
						"codeDepositCost": "387600",
						"executionCost": "22527",
						"totalCost": "410127"
					},
					"external": {
						"decimals()": "infinite",
						"fund()": "infinite",
						"getConversionRate(uint256)": "infinite",
						"getLatestPrice()": "infinite",
						"getVersion()": "infinite",
						"minimumUsd()": "2402"
					}
				},
				"methodIdentifiers": {
					"decimals()": "313ce567",
					"fund()": "b60d4288",
					"getConversionRate(uint256)": "6e5b6b28",
					"getLatestPrice()": "8e15f473",
					"getVersion()": "0d8e6e2c",
					"minimumUsd()": "098de820"
				}
			},
			"storageLayout": {
				"storage": [
					{
						"astId": 52,
						"contract": "FundMe.sol:FundMe",
						"label": "minimumUsd",
						"offset": 0,
						"slot": "0",
						"type": "t_uint256"
					}
				],
				"types": {
					"t_uint256": {
						"encoding": "inplace",
						"label": "uint256",
						"numberOfBytes": "32"
					}
				}
			},
			"userdoc": {
				"kind": "user",
				"methods": {},
				"version": 1
			}
		}
	}
}